S00B00005350492E737265632D
S11300000C942A000C9434000C9434000C943400A6
S11300100C9434000C9434000C9434000C9434008C
S11300200C9434000C9434000C9434000C9434007C
S11300300C9434000C9434000C9434000C9434006C
S11300400C9434000C9434000C9434000C9434005C
S11300500C94340011241FBECFE5D8E0DEBFCDBF21
S11300600E9445000C944D000C94000087B38F74DB
S113007087BB87B3806487BB80E48DB908958FEF15
S11300808FB9779BFECF8FB108958FEF84BB0E9409
S111009036000E943F0085BBFFCFF894FFCFDF
S9030000FC
