:020000020000FC
:1000000008E00EBF0FE50DBF0E9431000FEF04BBEB
:100010000EE7002E00E3102E0DE6202E09E7302E0D
:1000200003E3402E0BE5502E0FE5602E00E7702E07
:100030000FE7802E0BE7902E51E00E943C000E94BB
:100040003700413059F0483031F00E943E000E94A4
:100050003C000C941F005FEF0C94250051E00C94C1
:10006000250000E407BB0DB901E40DB908950EB1F8
:100070000078E9F34FB108955FB908954F70A42F48
:08008000B0E00C9105BB0895EE
:00000001FF
