:020000020000FC
:1000000008E00EBF0FE50DBF0EE7002E00E3102E37
:100010000DE6202E09E7302E03E3402E0BE5502E8F
:100020000FE5602E00E7702E0FE7802E0BE7902E75
:100030000FEF04BB07BB0ABB01E00BBB0E9426000D
:1000400002E00BBB0E9426000C941C00C4E0A2E05E
:100050000E9436000E943B00AA95AF3FC9F7CA959F
:10006000CF3F09F40895A9E00C942800088108BB4B
:100070000C9105BB08953AE02FEF1FEF1A951F3F33
:10008000E9F72A952F3FD1F73A953F3FB9F7089501
:00000001FF
