:020000020000FC
:1000000008E00EBF0FE50DBF0E942600EAE40E9443
:100010003900E9E60E943900E4E70E943900E2E68F
:100020000E943900E9E60E943900E4E70E943900A5
:10003000E1E60E943900EEE60E94390041E00E94AC
:10004000600040E80E9460000C9424000FEF04BBA5
:100050000ABB42E00E94600048E20E9460004CE05F
:100060000E94600046E00E94600041E00E94600043
:100070000895DE2FD07FD5BB01E00BBB03E00BBBA7
:1000800030E020E011E00E94870001E00BBB30E08F
:1000900023E010E00E948700EE0FEE0FEE0FEE0F50
:1000A000E5BB03E00BBB30E020E011E00E948700DD
:1000B00001E00BBB30E02FE110E00E9487000895C3
:1000C000542F507F55BB00E00BBB02E00BBB30E070
:1000D00020E011E00E94870000E00BBB30E023E04D
:1000E00010E00E948700440F440F440F440F45BBAB
:1000F00002E00BBB30E020E011E00E94870000E04E
:100100000BBB30E02FE110E00E94870008951A95A4
:100110001F3FE9F72A952F3FD1F73A953F3FB9F7AF
:02012000089540
:00000001FF
