:100000000C942A000C943F000C943F000C943F0089
:100010000C943F000C943F000C943F000C943F0064
:100020000C943F000C943F000C943F000C943F0054
:100030000C943F000C943F000C943F000C943F0044
:100040000C943F000C943F000C943F000C943F0034
:100050000C943F0011241FBECFE5D8E0DEBFCDBF1A
:1000600010E0A0E6B0E0E6EDF1E002C005900D92F0
:10007000AC37B107D9F70E94DB000C94E9000C946F
:10008000000098B39F70282F207F922B98BB98B3C5
:100090009E7F98BB98B3926098BB32E03A95F1F797
:1000A00000C098B39D7F98BBEFE8F1E03197F1F77E
:1000B00000C0000028B3F0E18F9FC0011124922FEF
:1000C0009F70892B88BB88B3826088BB32E03A95E9
:1000D000F1F700C088B38D7F88BB8FE99FE001975F
:1000E000F1F700C00000089598B39F70282F207F7B
:1000F000922B98BB98B3916098BB98B3926098BBD1
:1001000032E03A95F1F700C098B39D7F98BBEFE8D5
:10011000F1E03197F1F700C0000028B3F0E18F9FC4
:10012000C0011124922F9F70892B88BB88B38260F5
:1001300088BB32E03A95F1F700C088B38D7F88BB69
:100140008FE99FE00197F1F700C0000008958FEF5D
:1001500087BB8FE39CE90197F1F700C0000082E0C4
:100160000E94410088E20E9441008CE00E94410010
:1001700086E00E94410081E00E9441008FE99FE0FB
:100180000197F1F700C0000008950F931F93CF93DC
:10019000DF938C01C0E0D0E0F801EC0FFD1F8081FF
:1001A000882321F00E9474002196F6CFDF91CF9131
:1001B0001F910F9108950E94A70080E690E00E9491
:1001C000C50080EC0E94410080E790E00E94C500DD
:0601D000FFCFF894FFCF01
:1001D600456C656374726F6E696357494E47530089
:0C01E60048656C6C6F20576F726C6400F1
:00000001FF
