:020000020000FC
:100000000C9404000C946E0008E00EBF0FE50DBFC9
:100010000FEF0ABB04BB8A98929A789400E40BBF56
:1000200003E005BF0EE7002E00E3102E0DE6202EA4
:1000300009E7302E03E3402E0BE5502E0FE5602E2E
:1000400000E7702E0FE7802E0BE7902E41E0403046
:1000500041F0413011F00C942700C5E0A9E00C9468
:100060003A00C0E0A0E00C944B0050E0403099F022
:10007000413001F05130C9F30E945C000E946100E0
:10008000AA95AF3FB9F7CA95CF3F11F40C9427005A
:10009000A9E00C943A00513041F30E945C000E94A8
:1000A0006100A395AA30B9F7C395C63011F40C943A
:1000B0002700A0E00C944B0008810BBB0C9105BB02
:1000C00008953AE02FEF1FEF1A951F3FE9F72A95A1
:1000D0002F3FD1F73A953F3FB9F7089551E04030AF
:1000E00019F0413021F0189541E00C94730040E084
:0400F0000C947300F9
:00000001FF
