:020000020000FC
:1000000008E00EBF0FE50DBF0E940F000E94220006
:100010000E941800A92F0E941D000C94080008E1FE
:100020000AB906E800BD03E309B900E000BD089580
:100030000BB10078E9F39CB108950BB10072E9F3BC
:10004000ACB90895A5E40E941D00A3E60E941D001E
:10005000A8E60E941D00AFE60E941D00A0E20E94DB
:100060001D00A3E40E941D00A8E60E941D00A5E655
:100070000E941D00A3E60E941D00ABE60E941D0029
:08008000AAE00E941D00089592
:00000001FF
