:100000000C942A000C9434000C9434000C943400AA
:100010000C9434000C9434000C9434000C94340090
:100020000C9434000C9434000C9434000C94340080
:100030000C9434000C9434000C9434000C94340070
:100040000C9434000C9434000C9434000C94340060
:100050000C94340011241FBECFE5D8E0DEBFCDBF25
:100060000E94BA000C94C6000C94000095B39F70D7
:10007000282F207F922B95BB95B39E7F95BB95B380
:10008000926095BB32E03A95F1F700C095B39D7F41
:1000900095BBEFE8F1E03197F1F700C0000025B320
:1000A000F0E18F9FC0011124922F9F70892B85BB97
:1000B00085B3826085BB32E03A95F1F700C085B325
:1000C0008D7F85BB8FE99FE00197F1F700C00000AD
:1000D000089595B39F70282F207F922B95BB95B3E1
:1000E000916095BB95B3926095BB32E03A95F1F77C
:1000F00000C095B39D7F95BBEFE8F1E03197F1F734
:1001000000C0000025B3F0E18F9FC0011124922FA1
:100110009F70892B85BB85B3826085BB32E03A95A1
:10012000F1F700C085B38D7F85BB8FE99FE0019714
:10013000F1F700C0000008958FEF84BB8FE39CE9C6
:100140000197F1F700C0000082E00E94360088E2CB
:100150000E9436008CE00E94360086E00E94360045
:1001600081E00E9436008FE99FE00197F1F700C01F
:10017000000008950E949C008AE40E94690080ECBF
:100180000E94360082E40E946900FFCFF894FFCFFE
:00000001FF
